{"abi":[{"type":"constructor","inputs":[{"name":"","type":"uint256","internalType":"uint256"}],"stateMutability":"nonpayable"},{"type":"function","name":"allowance","inputs":[{"name":"_owner","type":"address","internalType":"address"},{"name":"spender","type":"address","internalType":"address"}],"outputs":[{"name":"","type":"uint256","internalType":"uint256"}],"stateMutability":"view"},{"type":"function","name":"approve","inputs":[{"name":"spender","type":"address","internalType":"address"},{"name":"amount","type":"uint256","internalType":"uint256"}],"outputs":[{"name":"","type":"bool","internalType":"bool"}],"stateMutability":"nonpayable"},{"type":"function","name":"balanceOf","inputs":[{"name":"account","type":"address","internalType":"address"}],"outputs":[{"name":"","type":"uint256","internalType":"uint256"}],"stateMutability":"view"},{"type":"function","name":"blacklist","inputs":[{"name":"account","type":"address","internalType":"address"}],"outputs":[],"stateMutability":"nonpayable"},{"type":"function","name":"burn","inputs":[{"name":"amount","type":"uint256","internalType":"uint256"}],"outputs":[],"stateMutability":"nonpayable"},{"type":"function","name":"decimals","inputs":[],"outputs":[{"name":"","type":"uint8","internalType":"uint8"}],"stateMutability":"view"},{"type":"function","name":"isBlacklisted","inputs":[{"name":"","type":"address","internalType":"address"}],"outputs":[{"name":"","type":"bool","internalType":"bool"}],"stateMutability":"view"},{"type":"function","name":"mint","inputs":[{"name":"to","type":"address","internalType":"address"},{"name":"amount","type":"uint256","internalType":"uint256"}],"outputs":[],"stateMutability":"nonpayable"},{"type":"function","name":"name","inputs":[],"outputs":[{"name":"","type":"string","internalType":"string"}],"stateMutability":"view"},{"type":"function","name":"owner","inputs":[],"outputs":[{"name":"","type":"address","internalType":"address"}],"stateMutability":"view"},{"type":"function","name":"pause","inputs":[],"outputs":[],"stateMutability":"nonpayable"},{"type":"function","name":"paused","inputs":[],"outputs":[{"name":"","type":"bool","internalType":"bool"}],"stateMutability":"view"},{"type":"function","name":"removeFromBlacklist","inputs":[{"name":"account","type":"address","internalType":"address"}],"outputs":[],"stateMutability":"nonpayable"},{"type":"function","name":"symbol","inputs":[],"outputs":[{"name":"","type":"string","internalType":"string"}],"stateMutability":"view"},{"type":"function","name":"totalSupply","inputs":[],"outputs":[{"name":"","type":"uint256","internalType":"uint256"}],"stateMutability":"view"},{"type":"function","name":"transfer","inputs":[{"name":"to","type":"address","internalType":"address"},{"name":"amount","type":"uint256","internalType":"uint256"}],"outputs":[{"name":"","type":"bool","internalType":"bool"}],"stateMutability":"nonpayable"},{"type":"function","name":"transferFrom","inputs":[{"name":"from","type":"address","internalType":"address"},{"name":"to","type":"address","internalType":"address"},{"name":"amount","type":"uint256","internalType":"uint256"}],"outputs":[{"name":"","type":"bool","internalType":"bool"}],"stateMutability":"nonpayable"},{"type":"function","name":"unpause","inputs":[],"outputs":[],"stateMutability":"nonpayable"},{"type":"event","name":"Approval","inputs":[{"name":"owner","type":"address","indexed":true,"internalType":"address"},{"name":"spender","type":"address","indexed":true,"internalType":"address"},{"name":"value","type":"uint256","indexed":false,"internalType":"uint256"}],"anonymous":false},{"type":"event","name":"Blacklisted","inputs":[{"name":"account","type":"address","indexed":true,"internalType":"address"}],"anonymous":false},{"type":"event","name":"Burn","inputs":[{"name":"from","type":"address","indexed":true,"internalType":"address"},{"name":"amount","type":"uint256","indexed":false,"internalType":"uint256"}],"anonymous":false},{"type":"event","name":"Mint","inputs":[{"name":"to","type":"address","indexed":true,"internalType":"address"},{"name":"amount","type":"uint256","indexed":false,"internalType":"uint256"}],"anonymous":false},{"type":"event","name":"Paused","inputs":[{"name":"account","type":"address","indexed":false,"internalType":"address"}],"anonymous":false},{"type":"event","name":"RemovedFromBlacklist","inputs":[{"name":"account","type":"address","indexed":true,"internalType":"address"}],"anonymous":false},{"type":"event","name":"Transfer","inputs":[{"name":"from","type":"address","indexed":true,"internalType":"address"},{"name":"to","type":"address","indexed":true,"internalType":"address"},{"name":"value","type":"uint256","indexed":false,"internalType":"uint256"}],"anonymous":false},{"type":"event","name":"Unpaused","inputs":[{"name":"account","type":"address","indexed":false,"internalType":"address"}],"anonymous":false},{"type":"error","name":"AddressBlacklisted","inputs":[]},{"type":"error","name":"AddressZero","inputs":[]},{"type":"error","name":"AllowanceExceeded","inputs":[]},{"type":"error","name":"ContractPaused","inputs":[]},{"type":"error","name":"InsufficientBalance","inputs":[]},{"type":"error","name":"Unauthorized","inputs":[]}],"bytecode":{"object":"0x60806040526040518060400160405280600981526020017f52454520546f6b656e00000000000000000000000000000000000000000000008152505f90816100479190610472565b506040518060400160405280600381526020017f52454500000000000000000000000000000000000000000000000000000000008152506001908161008c9190610472565b50601260025f6101000a81548160ff021916908360ff1602179055503480156100b3575f80fd5b506040516126b73803806126b783398181016040528101906100d5919061056f565b3360045f6101000a81548173ffffffffffffffffffffffffffffffffffffffff021916908373ffffffffffffffffffffffffffffffffffffffff16021790555060025f9054906101000a900460ff16600a6101309190610702565b6305f5e10061013f919061074c565b60038190555060035460055f60045f9054906101000a900473ffffffffffffffffffffffffffffffffffffffff1673ffffffffffffffffffffffffffffffffffffffff1673ffffffffffffffffffffffffffffffffffffffff1681526020019081526020015f208190555060045f9054906101000a900473ffffffffffffffffffffffffffffffffffffffff1673ffffffffffffffffffffffffffffffffffffffff165f73ffffffffffffffffffffffffffffffffffffffff167fddf252ad1be2c89b69c2b068fc378daa952ba7f163c4a11628f55a4df523b3ef60035460405161022a919061079c565b60405180910390a3506107b5565b5f81519050919050565b7f4e487b71000000000000000000000000000000000000000000000000000000005f52604160045260245ffd5b7f4e487b71000000000000000000000000000000000000000000000000000000005f52602260045260245ffd5b5f60028204905060018216806102b357607f821691505b6020821081036102c6576102c561026f565b5b50919050565b5f819050815f5260205f209050919050565b5f6020601f8301049050919050565b5f82821b905092915050565b5f600883026103287fffffffffffffffffffffffffffffffffffffffffffffffffffffffffffffffff826102ed565b61033286836102ed565b95508019841693508086168417925050509392505050565b5f819050919050565b5f819050919050565b5f61037661037161036c8461034a565b610353565b61034a565b9050919050565b5f819050919050565b61038f8361035c565b6103a361039b8261037d565b8484546102f9565b825550505050565b5f90565b6103b76103ab565b6103c2818484610386565b505050565b5b818110156103e5576103da5f826103af565b6001810190506103c8565b5050565b601f82111561042a576103fb816102cc565b610404846102de565b81016020851015610413578190505b61042761041f856102de565b8301826103c7565b50505b505050565b5f82821c905092915050565b5f61044a5f198460080261042f565b1980831691505092915050565b5f610462838361043b565b9150826002028217905092915050565b61047b82610238565b67ffffffffffffffff81111561049457610493610242565b5b61049e825461029c565b6104a98282856103e9565b5f60209050601f8311600181146104da575f84156104c8578287015190505b6104d28582610457565b865550610539565b601f1984166104e8866102cc565b5f5b8281101561050f578489015182556001820191506020850194506020810190506104ea565b8683101561052c5784890151610528601f89168261043b565b8355505b6001600288020188555050505b505050505050565b5f80fd5b61054e8161034a565b8114610558575f80fd5b50565b5f8151905061056981610545565b92915050565b5f6020828403121561058457610583610541565b5b5f6105918482850161055b565b91505092915050565b7f4e487b71000000000000000000000000000000000000000000000000000000005f52601160045260245ffd5b5f8160011c9050919050565b5f808291508390505b600185111561061c578086048111156105f8576105f761059a565b5b60018516156106075780820291505b8081029050610615856105c7565b94506105dc565b94509492505050565b5f8261063457600190506106ef565b81610641575f90506106ef565b8160018114610657576002811461066157610690565b60019150506106ef565b60ff8411156106735761067261059a565b5b8360020a91508482111561068a5761068961059a565b5b506106ef565b5060208310610133831016604e8410600b84101617156106c55782820a9050838111156106c0576106bf61059a565b5b6106ef565b6106d284848460016105d3565b925090508184048111156106e9576106e861059a565b5b81810290505b9392505050565b5f60ff82169050919050565b5f61070c8261034a565b9150610717836106f6565b92506107447fffffffffffffffffffffffffffffffffffffffffffffffffffffffffffffffff8484610625565b905092915050565b5f6107568261034a565b91506107618361034a565b925082820261076f8161034a565b915082820484148315176107865761078561059a565b5b5092915050565b6107968161034a565b82525050565b5f6020820190506107af5f83018461078d565b92915050565b611ef5806107c25f395ff3fe608060405234801561000f575f80fd5b5060043610610114575f3560e01c80635c975abb116100a057806395d89b411161006f57806395d89b41146102a6578063a9059cbb146102c4578063dd62ed3e146102f4578063f9f92be414610324578063fe575a871461034057610114565b80635c975abb1461023057806370a082311461024e5780638456cb591461027e5780638da5cb5b1461028857610114565b8063313ce567116100e7578063313ce567146101b45780633f4ba83a146101d257806340c10f19146101dc57806342966c68146101f8578063537df3b61461021457610114565b806306fdde0314610118578063095ea7b31461013657806318160ddd1461016657806323b872dd14610184575b5f80fd5b610120610370565b60405161012d9190611b45565b60405180910390f35b610150600480360381019061014b9190611bf6565b6103fb565b60405161015d9190611c4e565b60405180910390f35b61016e61069a565b60405161017b9190611c76565b60405180910390f35b61019e60048036038101906101999190611c8f565b6106a0565b6040516101ab9190611c4e565b60405180910390f35b6101bc610ba3565b6040516101c99190611cfa565b60405180910390f35b6101da610bb5565b005b6101f660048036038101906101f19190611bf6565b610cd4565b005b610212600480360381019061020d9190611d13565b610f28565b005b61022e60048036038101906102299190611d3e565b61118a565b005b61023861132a565b6040516102459190611c4e565b60405180910390f35b61026860048036038101906102639190611d3e565b61133d565b6040516102759190611c76565b60405180910390f35b610286611383565b005b6102906114a4565b60405161029d9190611d78565b60405180910390f35b6102ae6114c9565b6040516102bb9190611b45565b60405180910390f35b6102de60048036038101906102d99190611bf6565b611555565b6040516102eb9190611c4e565b60405180910390f35b61030e60048036038101906103099190611d91565b611894565b60405161031b9190611c76565b60405180910390f35b61033e60048036038101906103399190611d3e565b611916565b005b61035a60048036038101906103559190611d3e565b611ab8565b6040516103679190611c4e565b60405180910390f35b5f805461037c90611dfc565b80601f01602080910402602001604051908101604052809291908181526020018280546103a890611dfc565b80156103f35780601f106103ca576101008083540402835291602001916103f3565b820191905f5260205f20905b8154815290600101906020018083116103d657829003601f168201915b505050505081565b5f600460149054906101000a900460ff1615610443576040517fab35696f00000000000000000000000000000000000000000000000000000000815260040160405180910390fd5b3360075f8273ffffffffffffffffffffffffffffffffffffffff1673ffffffffffffffffffffffffffffffffffffffff1681526020019081526020015f205f9054906101000a900460ff16156104c5576040517f1f7b776b00000000000000000000000000000000000000000000000000000000815260040160405180910390fd5b8360075f8273ffffffffffffffffffffffffffffffffffffffff1673ffffffffffffffffffffffffffffffffffffffff1681526020019081526020015f205f9054906101000a900460ff1615610547576040517f1f7b776b00000000000000000000000000000000000000000000000000000000815260040160405180910390fd5b5f73ffffffffffffffffffffffffffffffffffffffff168573ffffffffffffffffffffffffffffffffffffffff16036105ac576040517f9fabe1c100000000000000000000000000000000000000000000000000000000815260040160405180910390fd5b8360065f3373ffffffffffffffffffffffffffffffffffffffff1673ffffffffffffffffffffffffffffffffffffffff1681526020019081526020015f205f8773ffffffffffffffffffffffffffffffffffffffff1673ffffffffffffffffffffffffffffffffffffffff1681526020019081526020015f20819055508473ffffffffffffffffffffffffffffffffffffffff163373ffffffffffffffffffffffffffffffffffffffff167f8c5be1e5ebec7d5bd14f71427d1e84f3dd0314c0f7b2291e5b200ac8c7c3b925866040516106869190611c76565b60405180910390a360019250505092915050565b60035481565b5f600460149054906101000a900460ff16156106e8576040517fab35696f00000000000000000000000000000000000000000000000000000000815260040160405180910390fd5b8360075f8273ffffffffffffffffffffffffffffffffffffffff1673ffffffffffffffffffffffffffffffffffffffff1681526020019081526020015f205f9054906101000a900460ff161561076a576040517f1f7b776b00000000000000000000000000000000000000000000000000000000815260040160405180910390fd5b8360075f8273ffffffffffffffffffffffffffffffffffffffff1673ffffffffffffffffffffffffffffffffffffffff1681526020019081526020015f205f9054906101000a900460ff16156107ec576040517f1f7b776b00000000000000000000000000000000000000000000000000000000815260040160405180910390fd5b3360075f8273ffffffffffffffffffffffffffffffffffffffff1673ffffffffffffffffffffffffffffffffffffffff1681526020019081526020015f205f9054906101000a900460ff161561086e576040517f1f7b776b00000000000000000000000000000000000000000000000000000000815260040160405180910390fd5b5f73ffffffffffffffffffffffffffffffffffffffff168673ffffffffffffffffffffffffffffffffffffffff16036108d3576040517f9fabe1c100000000000000000000000000000000000000000000000000000000815260040160405180910390fd5b8460055f8973ffffffffffffffffffffffffffffffffffffffff1673ffffffffffffffffffffffffffffffffffffffff1681526020019081526020015f2054101561094a576040517ff4d678b800000000000000000000000000000000000000000000000000000000815260040160405180910390fd5b8460065f8973ffffffffffffffffffffffffffffffffffffffff1673ffffffffffffffffffffffffffffffffffffffff1681526020019081526020015f205f3373ffffffffffffffffffffffffffffffffffffffff1673ffffffffffffffffffffffffffffffffffffffff1681526020019081526020015f205410156109fc576040517fc45cb51300000000000000000000000000000000000000000000000000000000815260040160405180910390fd5b8460055f8973ffffffffffffffffffffffffffffffffffffffff1673ffffffffffffffffffffffffffffffffffffffff1681526020019081526020015f205f828254610a489190611e59565b925050819055508460055f8873ffffffffffffffffffffffffffffffffffffffff1673ffffffffffffffffffffffffffffffffffffffff1681526020019081526020015f205f828254610a9b9190611e8c565b925050819055508460065f8973ffffffffffffffffffffffffffffffffffffffff1673ffffffffffffffffffffffffffffffffffffffff1681526020019081526020015f205f3373ffffffffffffffffffffffffffffffffffffffff1673ffffffffffffffffffffffffffffffffffffffff1681526020019081526020015f205f828254610b299190611e59565b925050819055508573ffffffffffffffffffffffffffffffffffffffff168773ffffffffffffffffffffffffffffffffffffffff167fddf252ad1be2c89b69c2b068fc378daa952ba7f163c4a11628f55a4df523b3ef87604051610b8d9190611c76565b60405180910390a3600193505050509392505050565b60025f9054906101000a900460ff1681565b60045f9054906101000a900473ffffffffffffffffffffffffffffffffffffffff1673ffffffffffffffffffffffffffffffffffffffff163373ffffffffffffffffffffffffffffffffffffffff1614610c3b576040517f82b4290000000000000000000000000000000000000000000000000000000000815260040160405180910390fd5b600460149054906101000a900460ff16610c81576040517fab35696f00000000000000000000000000000000000000000000000000000000815260040160405180910390fd5b5f600460146101000a81548160ff0219169083151502179055507f5db9ee0a495bf2e6ff9c91a7834c1ba4fdd244a5e8aa4e537bd38aeae4b073aa33604051610cca9190611d78565b60405180910390a1565b60045f9054906101000a900473ffffffffffffffffffffffffffffffffffffffff1673ffffffffffffffffffffffffffffffffffffffff163373ffffffffffffffffffffffffffffffffffffffff1614610d5a576040517f82b4290000000000000000000000000000000000000000000000000000000000815260040160405180910390fd5b600460149054906101000a900460ff1615610da1576040517fab35696f00000000000000000000000000000000000000000000000000000000815260040160405180910390fd5b5f73ffffffffffffffffffffffffffffffffffffffff168273ffffffffffffffffffffffffffffffffffffffff1603610e06576040517f9fabe1c100000000000000000000000000000000000000000000000000000000815260040160405180910390fd5b8060035f828254610e179190611e8c565b925050819055508060055f8473ffffffffffffffffffffffffffffffffffffffff1673ffffffffffffffffffffffffffffffffffffffff1681526020019081526020015f205f828254610e6a9190611e8c565b925050819055508173ffffffffffffffffffffffffffffffffffffffff167f0f6798a560793a54c3bcfe86a93cde1e73087d944c0ea20544137d412139688582604051610eb79190611c76565b60405180910390a28173ffffffffffffffffffffffffffffffffffffffff165f73ffffffffffffffffffffffffffffffffffffffff167fddf252ad1be2c89b69c2b068fc378daa952ba7f163c4a11628f55a4df523b3ef83604051610f1c9190611c76565b60405180910390a35050565b600460149054906101000a900460ff1615610f6f576040517fab35696f00000000000000000000000000000000000000000000000000000000815260040160405180910390fd5b3360075f8273ffffffffffffffffffffffffffffffffffffffff1673ffffffffffffffffffffffffffffffffffffffff1681526020019081526020015f205f9054906101000a900460ff1615610ff1576040517f1f7b776b00000000000000000000000000000000000000000000000000000000815260040160405180910390fd5b8160055f3373ffffffffffffffffffffffffffffffffffffffff1673ffffffffffffffffffffffffffffffffffffffff1681526020019081526020015f20541015611068576040517ff4d678b800000000000000000000000000000000000000000000000000000000815260040160405180910390fd5b8160035f8282546110799190611e59565b925050819055508160055f3373ffffffffffffffffffffffffffffffffffffffff1673ffffffffffffffffffffffffffffffffffffffff1681526020019081526020015f205f8282546110cc9190611e59565b925050819055503373ffffffffffffffffffffffffffffffffffffffff167fcc16f5dbb4873280815c1ee09dbd06736cffcc184412cf7a71a0fdb75d397ca5836040516111199190611c76565b60405180910390a25f73ffffffffffffffffffffffffffffffffffffffff163373ffffffffffffffffffffffffffffffffffffffff167fddf252ad1be2c89b69c2b068fc378daa952ba7f163c4a11628f55a4df523b3ef8460405161117e9190611c76565b60405180910390a35050565b60045f9054906101000a900473ffffffffffffffffffffffffffffffffffffffff1673ffffffffffffffffffffffffffffffffffffffff163373ffffffffffffffffffffffffffffffffffffffff1614611210576040517f82b4290000000000000000000000000000000000000000000000000000000000815260040160405180910390fd5b60075f8273ffffffffffffffffffffffffffffffffffffffff1673ffffffffffffffffffffffffffffffffffffffff1681526020019081526020015f205f9054906101000a900460ff16611290576040517f1f7b776b00000000000000000000000000000000000000000000000000000000815260040160405180910390fd5b5f60075f8373ffffffffffffffffffffffffffffffffffffffff1673ffffffffffffffffffffffffffffffffffffffff1681526020019081526020015f205f6101000a81548160ff0219169083151502179055508073ffffffffffffffffffffffffffffffffffffffff167f2b6bf71b58b3583add364b3d9060ebf8019650f65f5be35f5464b9cb3e4ba2d460405160405180910390a250565b600460149054906101000a900460ff1681565b5f60055f8373ffffffffffffffffffffffffffffffffffffffff1673ffffffffffffffffffffffffffffffffffffffff1681526020019081526020015f20549050919050565b60045f9054906101000a900473ffffffffffffffffffffffffffffffffffffffff1673ffffffffffffffffffffffffffffffffffffffff163373ffffffffffffffffffffffffffffffffffffffff1614611409576040517f82b4290000000000000000000000000000000000000000000000000000000000815260040160405180910390fd5b600460149054906101000a900460ff1615611450576040517fab35696f00000000000000000000000000000000000000000000000000000000815260040160405180910390fd5b6001600460146101000a81548160ff0219169083151502179055507f62e78cea01bee320cd4e420270b5ea74000d11b0c9f74754ebdbfc544b05a2583360405161149a9190611d78565b60405180910390a1565b60045f9054906101000a900473ffffffffffffffffffffffffffffffffffffffff1681565b600180546114d690611dfc565b80601f016020809104026020016040519081016040528092919081815260200182805461150290611dfc565b801561154d5780601f106115245761010080835404028352916020019161154d565b820191905f5260205f20905b81548152906001019060200180831161153057829003601f168201915b505050505081565b5f600460149054906101000a900460ff161561159d576040517fab35696f00000000000000000000000000000000000000000000000000000000815260040160405180910390fd5b3360075f8273ffffffffffffffffffffffffffffffffffffffff1673ffffffffffffffffffffffffffffffffffffffff1681526020019081526020015f205f9054906101000a900460ff161561161f576040517f1f7b776b00000000000000000000000000000000000000000000000000000000815260040160405180910390fd5b8360075f8273ffffffffffffffffffffffffffffffffffffffff1673ffffffffffffffffffffffffffffffffffffffff1681526020019081526020015f205f9054906101000a900460ff16156116a1576040517f1f7b776b00000000000000000000000000000000000000000000000000000000815260040160405180910390fd5b5f73ffffffffffffffffffffffffffffffffffffffff168573ffffffffffffffffffffffffffffffffffffffff1603611706576040517f9fabe1c100000000000000000000000000000000000000000000000000000000815260040160405180910390fd5b8360055f3373ffffffffffffffffffffffffffffffffffffffff1673ffffffffffffffffffffffffffffffffffffffff1681526020019081526020015f2054101561177d576040517ff4d678b800000000000000000000000000000000000000000000000000000000815260040160405180910390fd5b8360055f3373ffffffffffffffffffffffffffffffffffffffff1673ffffffffffffffffffffffffffffffffffffffff1681526020019081526020015f205f8282546117c99190611e59565b925050819055508360055f8773ffffffffffffffffffffffffffffffffffffffff1673ffffffffffffffffffffffffffffffffffffffff1681526020019081526020015f205f82825461181c9190611e8c565b925050819055508473ffffffffffffffffffffffffffffffffffffffff163373ffffffffffffffffffffffffffffffffffffffff167fddf252ad1be2c89b69c2b068fc378daa952ba7f163c4a11628f55a4df523b3ef866040516118809190611c76565b60405180910390a360019250505092915050565b5f60065f8473ffffffffffffffffffffffffffffffffffffffff1673ffffffffffffffffffffffffffffffffffffffff1681526020019081526020015f205f8373ffffffffffffffffffffffffffffffffffffffff1673ffffffffffffffffffffffffffffffffffffffff1681526020019081526020015f2054905092915050565b60045f9054906101000a900473ffffffffffffffffffffffffffffffffffffffff1673ffffffffffffffffffffffffffffffffffffffff163373ffffffffffffffffffffffffffffffffffffffff161461199c576040517f82b4290000000000000000000000000000000000000000000000000000000000815260040160405180910390fd5b60075f8273ffffffffffffffffffffffffffffffffffffffff1673ffffffffffffffffffffffffffffffffffffffff1681526020019081526020015f205f9054906101000a900460ff1615611a1d576040517f1f7b776b00000000000000000000000000000000000000000000000000000000815260040160405180910390fd5b600160075f8373ffffffffffffffffffffffffffffffffffffffff1673ffffffffffffffffffffffffffffffffffffffff1681526020019081526020015f205f6101000a81548160ff0219169083151502179055508073ffffffffffffffffffffffffffffffffffffffff167fffa4e6181777692565cf28528fc88fd1516ea86b56da075235fa575af6a4b85560405160405180910390a250565b6007602052805f5260405f205f915054906101000a900460ff1681565b5f81519050919050565b5f82825260208201905092915050565b8281835e5f83830152505050565b5f601f19601f8301169050919050565b5f611b1782611ad5565b611b218185611adf565b9350611b31818560208601611aef565b611b3a81611afd565b840191505092915050565b5f6020820190508181035f830152611b5d8184611b0d565b905092915050565b5f80fd5b5f73ffffffffffffffffffffffffffffffffffffffff82169050919050565b5f611b9282611b69565b9050919050565b611ba281611b88565b8114611bac575f80fd5b50565b5f81359050611bbd81611b99565b92915050565b5f819050919050565b611bd581611bc3565b8114611bdf575f80fd5b50565b5f81359050611bf081611bcc565b92915050565b5f8060408385031215611c0c57611c0b611b65565b5b5f611c1985828601611baf565b9250506020611c2a85828601611be2565b9150509250929050565b5f8115159050919050565b611c4881611c34565b82525050565b5f602082019050611c615f830184611c3f565b92915050565b611c7081611bc3565b82525050565b5f602082019050611c895f830184611c67565b92915050565b5f805f60608486031215611ca657611ca5611b65565b5b5f611cb386828701611baf565b9350506020611cc486828701611baf565b9250506040611cd586828701611be2565b9150509250925092565b5f60ff82169050919050565b611cf481611cdf565b82525050565b5f602082019050611d0d5f830184611ceb565b92915050565b5f60208284031215611d2857611d27611b65565b5b5f611d3584828501611be2565b91505092915050565b5f60208284031215611d5357611d52611b65565b5b5f611d6084828501611baf565b91505092915050565b611d7281611b88565b82525050565b5f602082019050611d8b5f830184611d69565b92915050565b5f8060408385031215611da757611da6611b65565b5b5f611db485828601611baf565b9250506020611dc585828601611baf565b9150509250929050565b7f4e487b71000000000000000000000000000000000000000000000000000000005f52602260045260245ffd5b5f6002820490506001821680611e1357607f821691505b602082108103611e2657611e25611dcf565b5b50919050565b7f4e487b71000000000000000000000000000000000000000000000000000000005f52601160045260245ffd5b5f611e6382611bc3565b9150611e6e83611bc3565b9250828203905081811115611e8657611e85611e2c565b5b92915050565b5f611e9682611bc3565b9150611ea183611bc3565b9250828201905080821115611eb957611eb8611e2c565b5b9291505056fea26469706673582212201ba93979fcb4925a86cc5f1f9ceb7efa9180ba0cd374a7d9726e6f741d3072b464736f6c63430008190033","linkReferences":{}},"methodIdentifiers":{"allowance(address,address)":"dd62ed3e","approve(address,uint256)":"095ea7b3","balanceOf(address)":"70a08231","blacklist(address)":"f9f92be4","burn(uint256)":"42966c68","decimals()":"313ce567","isBlacklisted(address)":"fe575a87","mint(address,uint256)":"40c10f19","name()":"06fdde03","owner()":"8da5cb5b","pause()":"8456cb59","paused()":"5c975abb","removeFromBlacklist(address)":"537df3b6","symbol()":"95d89b41","totalSupply()":"18160ddd","transfer(address,uint256)":"a9059cbb","transferFrom(address,address,uint256)":"23b872dd","unpause()":"3f4ba83a"},"id":0}